{
  "contractName": "DWDN",
  "abi": [
    {
      "inputs": [],
      "stateMutability": "nonpayable",
      "type": "constructor"
    },
    {
      "anonymous": false,
      "inputs": [
        {
          "indexed": false,
          "internalType": "uint256",
          "name": "i",
          "type": "uint256"
        }
      ],
      "name": "Print",
      "type": "event"
    },
    {
      "anonymous": false,
      "inputs": [
        {
          "indexed": false,
          "internalType": "string",
          "name": "s",
          "type": "string"
        }
      ],
      "name": "Print",
      "type": "event"
    },
    {
      "anonymous": false,
      "inputs": [
        {
          "indexed": false,
          "internalType": "string",
          "name": "s",
          "type": "string"
        },
        {
          "indexed": false,
          "internalType": "uint256",
          "name": "i",
          "type": "uint256"
        }
      ],
      "name": "Print",
      "type": "event"
    },
    {
      "inputs": [],
      "name": "_gasTransfer",
      "outputs": [
        {
          "internalType": "uint256",
          "name": "",
          "type": "uint256"
        }
      ],
      "stateMutability": "view",
      "type": "function",
      "constant": true
    },
    {
      "inputs": [],
      "name": "_lock",
      "outputs": [
        {
          "internalType": "bool",
          "name": "",
          "type": "bool"
        }
      ],
      "stateMutability": "view",
      "type": "function",
      "constant": true
    },
    {
      "inputs": [],
      "name": "_maxConnections",
      "outputs": [
        {
          "internalType": "uint256",
          "name": "",
          "type": "uint256"
        }
      ],
      "stateMutability": "view",
      "type": "function",
      "constant": true
    },
    {
      "inputs": [],
      "name": "_maxMemoryArray",
      "outputs": [
        {
          "internalType": "uint256",
          "name": "",
          "type": "uint256"
        }
      ],
      "stateMutability": "view",
      "type": "function",
      "constant": true
    },
    {
      "inputs": [],
      "name": "_maxWeiDistribution",
      "outputs": [
        {
          "internalType": "uint256",
          "name": "",
          "type": "uint256"
        }
      ],
      "stateMutability": "view",
      "type": "function",
      "constant": true
    },
    {
      "inputs": [],
      "name": "_minWeiDistribution",
      "outputs": [
        {
          "internalType": "uint256",
          "name": "",
          "type": "uint256"
        }
      ],
      "stateMutability": "view",
      "type": "function",
      "constant": true
    },
    {
      "inputs": [
        {
          "internalType": "address",
          "name": "",
          "type": "address"
        }
      ],
      "name": "_network",
      "outputs": [
        {
          "internalType": "uint256",
          "name": "_sizeOfConnectedUsersByAddress",
          "type": "uint256"
        }
      ],
      "stateMutability": "view",
      "type": "function",
      "constant": true
    },
    {
      "inputs": [],
      "name": "getParameters",
      "outputs": [
        {
          "internalType": "uint256",
          "name": "",
          "type": "uint256"
        },
        {
          "internalType": "uint256",
          "name": "",
          "type": "uint256"
        },
        {
          "internalType": "uint256",
          "name": "",
          "type": "uint256"
        },
        {
          "internalType": "uint256",
          "name": "",
          "type": "uint256"
        },
        {
          "internalType": "uint256",
          "name": "",
          "type": "uint256"
        }
      ],
      "stateMutability": "view",
      "type": "function",
      "constant": true
    },
    {
      "inputs": [
        {
          "internalType": "address",
          "name": "_address",
          "type": "address"
        }
      ],
      "name": "getVariables",
      "outputs": [
        {
          "internalType": "uint256",
          "name": "",
          "type": "uint256"
        },
        {
          "internalType": "uint256",
          "name": "",
          "type": "uint256"
        }
      ],
      "stateMutability": "view",
      "type": "function",
      "constant": true
    },
    {
      "inputs": [],
      "name": "getAddresses",
      "outputs": [
        {
          "internalType": "address[]",
          "name": "",
          "type": "address[]"
        }
      ],
      "stateMutability": "view",
      "type": "function",
      "constant": true
    },
    {
      "inputs": [],
      "name": "getBlackListAddresses",
      "outputs": [
        {
          "internalType": "address[]",
          "name": "",
          "type": "address[]"
        }
      ],
      "stateMutability": "view",
      "type": "function",
      "constant": true
    },
    {
      "inputs": [
        {
          "internalType": "uint256",
          "name": "gas",
          "type": "uint256"
        }
      ],
      "name": "changeGasValue",
      "outputs": [],
      "stateMutability": "nonpayable",
      "type": "function"
    },
    {
      "inputs": [
        {
          "internalType": "uint256",
          "name": "maxMemory",
          "type": "uint256"
        }
      ],
      "name": "changeMaxMemory",
      "outputs": [],
      "stateMutability": "nonpayable",
      "type": "function"
    },
    {
      "inputs": [
        {
          "internalType": "uint256",
          "name": "a",
          "type": "uint256"
        },
        {
          "internalType": "uint256",
          "name": "b",
          "type": "uint256"
        }
      ],
      "name": "max",
      "outputs": [
        {
          "internalType": "uint256",
          "name": "",
          "type": "uint256"
        }
      ],
      "stateMutability": "pure",
      "type": "function",
      "constant": true
    },
    {
      "inputs": [
        {
          "internalType": "uint256",
          "name": "a",
          "type": "uint256"
        },
        {
          "internalType": "uint256",
          "name": "b",
          "type": "uint256"
        }
      ],
      "name": "min",
      "outputs": [
        {
          "internalType": "uint256",
          "name": "",
          "type": "uint256"
        }
      ],
      "stateMutability": "pure",
      "type": "function",
      "constant": true
    },
    {
      "inputs": [
        {
          "internalType": "address[]",
          "name": "arr",
          "type": "address[]"
        },
        {
          "internalType": "address",
          "name": "element",
          "type": "address"
        }
      ],
      "name": "arrayHasElement",
      "outputs": [
        {
          "internalType": "bool",
          "name": "",
          "type": "bool"
        }
      ],
      "stateMutability": "pure",
      "type": "function",
      "constant": true
    },
    {
      "inputs": [],
      "name": "makeADonation",
      "outputs": [],
      "stateMutability": "payable",
      "type": "function",
      "payable": true
    },
    {
      "inputs": [
        {
          "internalType": "address",
          "name": "_address",
          "type": "address"
        }
      ],
      "name": "addUserToBlacklist",
      "outputs": [],
      "stateMutability": "nonpayable",
      "type": "function"
    },
    {
      "inputs": [
        {
          "internalType": "address",
          "name": "_address",
          "type": "address"
        }
      ],
      "name": "requestUserToJoinTheNetwork",
      "outputs": [],
      "stateMutability": "nonpayable",
      "type": "function"
    },
    {
      "inputs": [],
      "name": "destroy",
      "outputs": [],
      "stateMutability": "nonpayable",
      "type": "function"
    }
  ],
  "bytecode": "0x60806040523480156200001157600080fd5b50336000806101000a81548173ffffffffffffffffffffffffffffffffffffffff021916908373ffffffffffffffffffffffffffffffffffffffff160217905550600460038190555066071afd498d000060018190555065b5e620f4800060028190555060646004819055506000600660006101000a81548160ff021916908315150217905550610bb86005819055506001600760008060009054906101000a900473ffffffffffffffffffffffffffffffffffffffff1673ffffffffffffffffffffffffffffffffffffffff1673ffffffffffffffffffffffffffffffffffffffff16815260200190815260200160002060000160008060009054906101000a900473ffffffffffffffffffffffffffffffffffffffff1673ffffffffffffffffffffffffffffffffffffffff1673ffffffffffffffffffffffffffffffffffffffff16815260200190815260200160002081905550600760008060009054906101000a900473ffffffffffffffffffffffffffffffffffffffff1673ffffffffffffffffffffffffffffffffffffffff1673ffffffffffffffffffffffffffffffffffffffff1681526020019081526020016000206003016000815480929190620001de9062000222565b91905055506200026f565b7f4e487b7100000000000000000000000000000000000000000000000000000000600052601160045260246000fd5b6000819050919050565b60006200022f8262000218565b91507fffffffffffffffffffffffffffffffffffffffffffffffffffffffffffffffff8203620002645762000263620001e9565b5b600182019050919050565b6121a4806200027f6000396000f3fe60806040526004361061011f5760003560e01c80636d5433e6116100a0578063a39fac1211610064578063a39fac12146103cb578063a5ea11da146103f6578063ba02ff5c14610425578063be7eab141461044e578063dec60aef146104795761011f565b80636d5433e6146102d25780637ae2b5c71461030f5780638292f7be1461034c57806383197ef0146103895780639c2e15d6146103a05761011f565b80634bd724ed116100e75780634bd724ed1461020957806350b00eb3146102345780635f3daf971461027257806367dc880e1461029d5780636928ae03146102c85761011f565b806301c2edac14610124578063272d988a1461014d57806343d8dd4f146101785780634467ea5b146101a35780634863e96d146101e0575b600080fd5b34801561013057600080fd5b5061014b6004803603810190610146919061184a565b6104a2565b005b34801561015957600080fd5b50610162610995565b60405161016f9190611890565b60405180910390f35b34801561018457600080fd5b5061018d61099b565b60405161019a9190611890565b60405180910390f35b3480156101af57600080fd5b506101ca60048036038101906101c5919061184a565b6109a1565b6040516101d79190611890565b60405180910390f35b3480156101ec57600080fd5b506102076004803603810190610202919061184a565b6109bf565b005b34801561021557600080fd5b5061021e610a47565b60405161022b91906118c6565b60405180910390f35b34801561024057600080fd5b5061025b6004803603810190610256919061184a565b610a5a565b6040516102699291906118e1565b60405180910390f35b34801561027e57600080fd5b50610287610b29565b60405161029491906119c8565b60405180910390f35b3480156102a957600080fd5b506102b2610dc5565b6040516102bf9190611890565b60405180910390f35b6102d0610dcb565b005b3480156102de57600080fd5b506102f960048036038101906102f49190611a16565b6113ce565b6040516103069190611890565b60405180910390f35b34801561031b57600080fd5b5061033660048036038101906103319190611a16565b6113e8565b6040516103439190611890565b60405180910390f35b34801561035857600080fd5b50610373600480360381019061036e9190611baf565b611402565b60405161038091906118c6565b60405180910390f35b34801561039557600080fd5b5061039e6114df565b005b3480156103ac57600080fd5b506103b56115a6565b6040516103c29190611890565b60405180910390f35b3480156103d757600080fd5b506103e06115ac565b6040516103ed91906119c8565b60405180910390f35b34801561040257600080fd5b5061040b61167a565b60405161041c959493929190611c0b565b60405180910390f35b34801561043157600080fd5b5061044c60048036038101906104479190611c5e565b6116a2565b005b34801561045a57600080fd5b5061046361173a565b6040516104709190611890565b60405180910390f35b34801561048557600080fd5b506104a0600480360381019061049b9190611c5e565b611740565b005b6001600760003373ffffffffffffffffffffffffffffffffffffffff1673ffffffffffffffffffffffffffffffffffffffff16815260200190815260200160002060000160003373ffffffffffffffffffffffffffffffffffffffff1673ffffffffffffffffffffffffffffffffffffffff1681526020019081526020016000205414610564576040517f08c379a000000000000000000000000000000000000000000000000000000000815260040161055b90611d0e565b60405180910390fd5b6000600760003373ffffffffffffffffffffffffffffffffffffffff1673ffffffffffffffffffffffffffffffffffffffff16815260200190815260200160002060000160008373ffffffffffffffffffffffffffffffffffffffff1673ffffffffffffffffffffffffffffffffffffffff1681526020019081526020016000205414610626576040517f08c379a000000000000000000000000000000000000000000000000000000000815260040161061d90611da0565b60405180910390fd5b600354600760003373ffffffffffffffffffffffffffffffffffffffff1673ffffffffffffffffffffffffffffffffffffffff1681526020019081526020016000206003015411156106ad576040517f08c379a00000000000000000000000000000000000000000000000000000000081526004016106a490611e32565b60405180910390fd5b6000600760008373ffffffffffffffffffffffffffffffffffffffff1673ffffffffffffffffffffffffffffffffffffffff16815260200190815260200160002060000160008373ffffffffffffffffffffffffffffffffffffffff1673ffffffffffffffffffffffffffffffffffffffff1681526020019081526020016000205403610812576001600760008373ffffffffffffffffffffffffffffffffffffffff1673ffffffffffffffffffffffffffffffffffffffff16815260200190815260200160002060000160008373ffffffffffffffffffffffffffffffffffffffff1673ffffffffffffffffffffffffffffffffffffffff16815260200190815260200160002081905550600760008273ffffffffffffffffffffffffffffffffffffffff1673ffffffffffffffffffffffffffffffffffffffff168152602001908152602001600020600301600081548092919061080c90611e81565b91905055505b6001600760003373ffffffffffffffffffffffffffffffffffffffff1673ffffffffffffffffffffffffffffffffffffffff16815260200190815260200160002060000160008373ffffffffffffffffffffffffffffffffffffffff1673ffffffffffffffffffffffffffffffffffffffff16815260200190815260200160002081905550600760003373ffffffffffffffffffffffffffffffffffffffff1673ffffffffffffffffffffffffffffffffffffffff168152602001908152602001600020600201819080600181540180825580915050600190039060005260206000200160009091909190916101000a81548173ffffffffffffffffffffffffffffffffffffffff021916908373ffffffffffffffffffffffffffffffffffffffff160217905550600760003373ffffffffffffffffffffffffffffffffffffffff1673ffffffffffffffffffffffffffffffffffffffff168152602001908152602001600020600301600081548092919061098d90611e81565b919050555050565b60015481565b60055481565b60076020528060005260406000206000915090508060030154905081565b6001600760003373ffffffffffffffffffffffffffffffffffffffff1673ffffffffffffffffffffffffffffffffffffffff16815260200190815260200160002060010160008373ffffffffffffffffffffffffffffffffffffffff1673ffffffffffffffffffffffffffffffffffffffff1681526020019081526020016000208190555050565b600660009054906101000a900460ff1681565b600080600760003373ffffffffffffffffffffffffffffffffffffffff1673ffffffffffffffffffffffffffffffffffffffff16815260200190815260200160002060000160008473ffffffffffffffffffffffffffffffffffffffff1673ffffffffffffffffffffffffffffffffffffffff16815260200190815260200160002054600760003373ffffffffffffffffffffffffffffffffffffffff1673ffffffffffffffffffffffffffffffffffffffff1681526020019081526020016000206003015491509150915091565b6060600060035467ffffffffffffffff811115610b4957610b48611a6c565b5b604051908082528060200260200182016040528015610b775781602001602082028036833780820191505090505b5090506000805b600760003373ffffffffffffffffffffffffffffffffffffffff1673ffffffffffffffffffffffffffffffffffffffff16815260200190815260200160002060020180549050811015610dbc576001600760003373ffffffffffffffffffffffffffffffffffffffff1673ffffffffffffffffffffffffffffffffffffffff1681526020019081526020016000206001016000600760003373ffffffffffffffffffffffffffffffffffffffff1673ffffffffffffffffffffffffffffffffffffffff1681526020019081526020016000206002018481548110610c6557610c64611ec9565b5b9060005260206000200160009054906101000a900473ffffffffffffffffffffffffffffffffffffffff1673ffffffffffffffffffffffffffffffffffffffff1673ffffffffffffffffffffffffffffffffffffffff1681526020019081526020016000205403610dab57600760003373ffffffffffffffffffffffffffffffffffffffff1673ffffffffffffffffffffffffffffffffffffffff1681526020019081526020016000206002018181548110610d2457610d23611ec9565b5b9060005260206000200160009054906101000a900473ffffffffffffffffffffffffffffffffffffffff16838381518110610d6257610d61611ec9565b5b602002602001019073ffffffffffffffffffffffffffffffffffffffff16908173ffffffffffffffffffffffffffffffffffffffff16815250508180610da790611e81565b9250505b80610db590611e81565b9050610b7e565b50819250505090565b60035481565b600660009054906101000a900460ff1615610e1b576040517f08c379a0000000000000000000000000000000000000000000000000000000008152600401610e1290611f44565b60405180910390fd5b600354600760003373ffffffffffffffffffffffffffffffffffffffff1673ffffffffffffffffffffffffffffffffffffffff1681526020019081526020016000206003015411610ea1576040517f08c379a0000000000000000000000000000000000000000000000000000000008152600401610e9890611fd6565b60405180910390fd5b6001600660006101000a81548160ff02191690831515021790555060003490506000806000905060008060045467ffffffffffffffff811115610ee757610ee6611a6c565b5b604051908082528060200260200182016040528015610f155781602001602082028036833780820191505090505b5090503381600081518110610f2d57610f2c611ec9565b5b602002602001019073ffffffffffffffffffffffffffffffffffffffff16908173ffffffffffffffffffffffffffffffffffffffff16815250505b600073ffffffffffffffffffffffffffffffffffffffff16818481518110610f9357610f92611ec9565b5b602002602001015173ffffffffffffffffffffffffffffffffffffffff1614158015610fc0575060045482105b156112f0576000818481518110610fda57610fd9611ec9565b5b6020026020010151905060005b60076000848781518110610ffe57610ffd611ec9565b5b602002602001015173ffffffffffffffffffffffffffffffffffffffff1673ffffffffffffffffffffffffffffffffffffffff168152602001908152602001600020600201805490508110156112db576000600760008473ffffffffffffffffffffffffffffffffffffffff1673ffffffffffffffffffffffffffffffffffffffff16815260200190815260200160002060020182815481106110a4576110a3611ec9565b5b9060005260206000200160009054906101000a900473ffffffffffffffffffffffffffffffffffffffff1690506001600760008573ffffffffffffffffffffffffffffffffffffffff1673ffffffffffffffffffffffffffffffffffffffff16815260200190815260200160002060010160008373ffffffffffffffffffffffffffffffffffffffff1673ffffffffffffffffffffffffffffffffffffffff168152602001908152602001600020540361115e57506112ca565b6111688482611402565b1561117357506112ca565b60025488101561118357506112db565b61119a611192896001546113e8565b6002546113ce565b965086886111a89190611ff6565b975060008173ffffffffffffffffffffffffffffffffffffffff1688600554906040516111d49061205b565b600060405180830381858888f193505050503d8060008114611212576040519150601f19603f3d011682016040523d82523d6000602084013e611217565b606091505b505090508061125b576040517f08c379a0000000000000000000000000000000000000000000000000000000008152600401611252906120bc565b60405180910390fd5b858061126690611e81565b96505060045486106112795750506112db565b8185878151811061128d5761128c611ec9565b5b602002602001019073ffffffffffffffffffffffffffffffffffffffff16908173ffffffffffffffffffffffffffffffffffffffff168152505050505b806112d490611e81565b9050610fe7565b5083806112e790611e81565b94505050610f68565b60025485106113ac5760003373ffffffffffffffffffffffffffffffffffffffff1686600554906040516113239061205b565b600060405180830381858888f193505050503d8060008114611361576040519150601f19603f3d011682016040523d82523d6000602084013e611366565b606091505b50509050806113aa576040517f08c379a00000000000000000000000000000000000000000000000000000000081526004016113a1906120bc565b60405180910390fd5b505b6000600660006101000a81548160ff0219169083151502179055505050505050565b6000818310156113de57816113e0565b825b905092915050565b6000818311156113f857816113fa565b825b905092915050565b600080600090505b83518110156114d3578273ffffffffffffffffffffffffffffffffffffffff1684828151811061143d5761143c611ec9565b5b602002602001015173ffffffffffffffffffffffffffffffffffffffff160361146a5760019150506114d9565b600073ffffffffffffffffffffffffffffffffffffffff1684828151811061149557611494611ec9565b5b602002602001015173ffffffffffffffffffffffffffffffffffffffff16036114c25760009150506114d9565b806114cc90611e81565b905061140a565b50600090505b92915050565b60008054906101000a900473ffffffffffffffffffffffffffffffffffffffff1673ffffffffffffffffffffffffffffffffffffffff163373ffffffffffffffffffffffffffffffffffffffff161461156d576040517f08c379a00000000000000000000000000000000000000000000000000000000081526004016115649061214e565b60405180910390fd5b60008054906101000a900473ffffffffffffffffffffffffffffffffffffffff1673ffffffffffffffffffffffffffffffffffffffff16ff5b60025481565b6060600760003373ffffffffffffffffffffffffffffffffffffffff1673ffffffffffffffffffffffffffffffffffffffff16815260200190815260200160002060020180548060200260200160405190810160405280929190818152602001828054801561167057602002820191906000526020600020905b8160009054906101000a900473ffffffffffffffffffffffffffffffffffffffff1673ffffffffffffffffffffffffffffffffffffffff1681526020019060010190808311611626575b5050505050905090565b6000806000806000600354600154600254600454600554945094509450945094509091929394565b60008054906101000a900473ffffffffffffffffffffffffffffffffffffffff1673ffffffffffffffffffffffffffffffffffffffff163373ffffffffffffffffffffffffffffffffffffffff1614611730576040517f08c379a00000000000000000000000000000000000000000000000000000000081526004016117279061214e565b60405180910390fd5b8060048190555050565b60045481565b60008054906101000a900473ffffffffffffffffffffffffffffffffffffffff1673ffffffffffffffffffffffffffffffffffffffff163373ffffffffffffffffffffffffffffffffffffffff16146117ce576040517f08c379a00000000000000000000000000000000000000000000000000000000081526004016117c59061214e565b60405180910390fd5b8060058190555050565b6000604051905090565b600080fd5b600080fd5b600073ffffffffffffffffffffffffffffffffffffffff82169050919050565b6000611817826117ec565b9050919050565b6118278161180c565b811461183257600080fd5b50565b6000813590506118448161181e565b92915050565b6000602082840312156118605761185f6117e2565b5b600061186e84828501611835565b91505092915050565b6000819050919050565b61188a81611877565b82525050565b60006020820190506118a56000830184611881565b92915050565b60008115159050919050565b6118c0816118ab565b82525050565b60006020820190506118db60008301846118b7565b92915050565b60006040820190506118f66000830185611881565b6119036020830184611881565b9392505050565b600081519050919050565b600082825260208201905092915050565b6000819050602082019050919050565b61193f8161180c565b82525050565b60006119518383611936565b60208301905092915050565b6000602082019050919050565b60006119758261190a565b61197f8185611915565b935061198a83611926565b8060005b838110156119bb5781516119a28882611945565b97506119ad8361195d565b92505060018101905061198e565b5085935050505092915050565b600060208201905081810360008301526119e2818461196a565b905092915050565b6119f381611877565b81146119fe57600080fd5b50565b600081359050611a10816119ea565b92915050565b60008060408385031215611a2d57611a2c6117e2565b5b6000611a3b85828601611a01565b9250506020611a4c85828601611a01565b9150509250929050565b600080fd5b6000601f19601f8301169050919050565b7f4e487b7100000000000000000000000000000000000000000000000000000000600052604160045260246000fd5b611aa482611a5b565b810181811067ffffffffffffffff82111715611ac357611ac2611a6c565b5b80604052505050565b6000611ad66117d8565b9050611ae28282611a9b565b919050565b600067ffffffffffffffff821115611b0257611b01611a6c565b5b602082029050602081019050919050565b600080fd5b6000611b2b611b2684611ae7565b611acc565b90508083825260208201905060208402830185811115611b4e57611b4d611b13565b5b835b81811015611b775780611b638882611835565b845260208401935050602081019050611b50565b5050509392505050565b600082601f830112611b9657611b95611a56565b5b8135611ba6848260208601611b18565b91505092915050565b60008060408385031215611bc657611bc56117e2565b5b600083013567ffffffffffffffff811115611be457611be36117e7565b5b611bf085828601611b81565b9250506020611c0185828601611835565b9150509250929050565b600060a082019050611c206000830188611881565b611c2d6020830187611881565b611c3a6040830186611881565b611c476060830185611881565b611c546080830184611881565b9695505050505050565b600060208284031215611c7457611c736117e2565b5b6000611c8284828501611a01565b91505092915050565b600082825260208201905092915050565b7f5468652075736572206973206e6f742070617274206f6620746865206e65747760008201527f6f726b0000000000000000000000000000000000000000000000000000000000602082015250565b6000611cf8602383611c8b565b9150611d0382611c9c565b604082019050919050565b60006020820190508181036000830152611d2781611ceb565b9050919050565b7f546865207573657220697320616c726561647920636f6e6e656374656420746f60008201527f207468697320706172656e740000000000000000000000000000000000000000602082015250565b6000611d8a602c83611c8b565b9150611d9582611d2e565b604082019050919050565b60006020820190508181036000830152611db981611d7d565b9050919050565b7f5468652075736572207265616368656420746865206d6178696d756d206e756d60008201527f626572206f6620636f6e6e656374696f6e730000000000000000000000000000602082015250565b6000611e1c603283611c8b565b9150611e2782611dc0565b604082019050919050565b60006020820190508181036000830152611e4b81611e0f565b9050919050565b7f4e487b7100000000000000000000000000000000000000000000000000000000600052601160045260246000fd5b6000611e8c82611877565b91507fffffffffffffffffffffffffffffffffffffffffffffffffffffffffffffffff8203611ebe57611ebd611e52565b5b600182019050919050565b7f4e487b7100000000000000000000000000000000000000000000000000000000600052603260045260246000fd5b7f5265656e7472616e637920646574656374656421000000000000000000000000600082015250565b6000611f2e601483611c8b565b9150611f3982611ef8565b602082019050919050565b60006020820190508181036000830152611f5d81611f21565b9050919050565b7f54686520757365722068617320746f20616464206d6f726520636f6e6e65637460008201527f696f6e7320746f206d616b65206120646f6e6174696f6e000000000000000000602082015250565b6000611fc0603783611c8b565b9150611fcb82611f64565b604082019050919050565b60006020820190508181036000830152611fef81611fb3565b9050919050565b600061200182611877565b915061200c83611877565b92508282101561201f5761201e611e52565b5b828203905092915050565b600081905092915050565b50565b600061204560008361202a565b915061205082612035565b600082019050919050565b600061206682612038565b9150819050919050565b7f5472616e73666572206661696c65640000000000000000000000000000000000600082015250565b60006120a6600f83611c8b565b91506120b182612070565b602082019050919050565b600060208201905081810360008301526120d581612099565b9050919050565b7f4f6e6c7920746865206f776e65722063616e2063616c6c20746869732066756e60008201527f6374696f6e000000000000000000000000000000000000000000000000000000602082015250565b6000612138602583611c8b565b9150612143826120dc565b604082019050919050565b600060208201905081810360008301526121678161212b565b905091905056fea264697066735822122049e755e808c05552e71223181a6999466760d02b4ef64afd24223f634962bdaa64736f6c634300080d0033",
  "immutableReferences": {},
  "source": "// SPDX-License-Identifier: MIT\npragma solidity >=0.4.22 <0.9.0;\n\n\n// Decentralized Wealth Distribution Network\ncontract DWDN {\n  address _owner;\n\n  uint public _maxWeiDistribution;\n  uint public _minWeiDistribution;\n  uint public _maxConnections;\n  uint public _maxMemoryArray;\n  uint public _gasTransfer;\n\n  bool public _lock;\n\n  struct Network {\n    mapping(address => uint) _connectedUsersByAddress;\n    mapping(address => uint) _blackList;\n    address [] _addresses;\n    uint _sizeOfConnectedUsersByAddress;\n  }\n\n  mapping(address => Network) public _network;\n\n  event Print(uint i);\n  event Print(string s);\n  event Print(string s, uint i);\n\n  constructor() {\n    _owner                  = msg.sender;\n    _maxConnections         = 4;\n    _maxWeiDistribution     = (10**15)*2;\n    _minWeiDistribution     = (10**14)*2;\n    _maxMemoryArray         = 100;\n    _lock                   = false;\n    _gasTransfer            = 3000;\n\n    //emit Print(_maxWeiDistribution);\n\n    _network[_owner]._connectedUsersByAddress[_owner] = 1;\n    _network[_owner]._sizeOfConnectedUsersByAddress++;\n  }\n\n\n  modifier onlyOwner {\n    require(msg.sender == _owner, \"Only the owner can call this function\");\n    _;\n  }\n\n\n  function getParameters() public view returns (uint,uint,uint,uint,uint) {\n    return(_maxConnections,_maxWeiDistribution,_minWeiDistribution,_maxMemoryArray,_gasTransfer);\n  }\n\n\n  function getVariables(address _address) public view returns (uint,uint) {\n    return(_network[msg.sender]._connectedUsersByAddress[_address],_network[msg.sender]._sizeOfConnectedUsersByAddress);\n  }\n\n  function getAddresses() public view returns (address [] memory) {\n    return(_network[msg.sender]._addresses);\n  }\n\n  function getBlackListAddresses() public view returns (address [] memory) {\n\n    address [] memory _addressesOnBlackList = new address[](_maxConnections);\n    uint j = 0;\n\n    for(uint i = 0; i < _network[msg.sender]._addresses.length; ++i) {\n      if(_network[msg.sender]._blackList[_network[msg.sender]._addresses[i]] == 1) {\n        _addressesOnBlackList[j] = _network[msg.sender]._addresses[i];\n        j++;\n      }\n    }\n\n    return _addressesOnBlackList;\n  }\n\n\n  function changeGasValue(uint gas) public onlyOwner {\n    _gasTransfer = gas;\n  }\n\n\n  function changeMaxMemory(uint maxMemory) public onlyOwner {\n    _maxMemoryArray = maxMemory;\n  }\n\n\n  function max(uint256 a, uint256 b) public pure returns (uint256) {\n    return a >= b ? a : b;\n  }\n\n\n  function min(uint256 a, uint256 b) public pure returns (uint256) {\n    return a <= b ? a : b;\n  }\n\n\n  function arrayHasElement(address [] memory arr, address element) public pure returns (bool) {\n    for(uint i = 0; i < arr.length; ++i) {\n      if(arr[i] == element) {\n        return true;\n      }\n      if(arr[i] == address(0)) {\n        return false;\n      }\n    }\n    return false;\n  }\n\n\n  function makeADonation() public payable {\n    require(!_lock, \"Reentrancy detected!\");\n    require(_network[msg.sender]._sizeOfConnectedUsersByAddress > _maxConnections, \"The user has to add more connections to make a donation\");\n\n    _lock = true;\n\n    uint _remainingAmount = msg.value;\n    uint _donationAmount;\n    uint _currentChildLocation = 0;\n    uint _maxChildLocation    = 0;\n\n    address [] memory _childs = new address[](_maxMemoryArray);\n\n    _childs[0] = msg.sender;\n\n    while(_childs[_currentChildLocation] != address(0) && _maxChildLocation <_maxMemoryArray) {\n      address _parent = _childs[_currentChildLocation];\n\n      for(uint i = 0; i < _network[_childs[_currentChildLocation]]._addresses.length; ++i) {\n        address _child  = _network[_parent]._addresses[i];\n\n        if(_network[_parent]._blackList[_child] == 1) {\n          continue;\n        }\n        if(arrayHasElement(_childs,_child)) {\n          continue;\n        }\n        if(_remainingAmount < _minWeiDistribution) {\n          break;\n        }\n\n        _donationAmount  = max(min(_remainingAmount,_maxWeiDistribution),_minWeiDistribution);\n        _remainingAmount = _remainingAmount - _donationAmount;\n\n        (bool success,) = _child.call{value: _donationAmount, gas: _gasTransfer}(\"\");\n        require(success,\"Transfer failed\");\n\n        _maxChildLocation++;\n\n        if(_maxChildLocation >= _maxMemoryArray) {\n          break;\n        }\n\n        _childs[_maxChildLocation] = _child;\n      }\n\n      _currentChildLocation++;\n    }\n\n    if(_remainingAmount >= _minWeiDistribution){\n      (bool success,) = msg.sender.call{value: _remainingAmount, gas: _gasTransfer}(\"\");\n      require(success,\"Transfer failed\");\n    }\n\n    _lock = false;\n  }\n\n\n  function addUserToBlacklist(address _address) public {\n    _network[msg.sender]._blackList[_address] = 1;\n  }\n\n\n  function requestUserToJoinTheNetwork(address _address) public {\n    require(_network[msg.sender]._connectedUsersByAddress[msg.sender] == 1, \"The user is not part of the network\");\n    require(_network[msg.sender]._connectedUsersByAddress[_address] == 0, \"The user is already connected to this parent\");\n    require(_network[msg.sender]._sizeOfConnectedUsersByAddress <= _maxConnections, \"The user reached the maximum number of connections\");\n\n    if(_network[_address]._connectedUsersByAddress[_address] == 0){\n      _network[_address]._connectedUsersByAddress[_address] = 1;\n      _network[_address]._sizeOfConnectedUsersByAddress++;\n    }\n\n    _network[msg.sender]._connectedUsersByAddress[_address] = 1;\n    _network[msg.sender]._addresses.push(_address);\n    _network[msg.sender]._sizeOfConnectedUsersByAddress++;\n  }\n\n\n  function destroy() public onlyOwner {\n    selfdestruct(payable(_owner));\n  }\n}\n",
  "sourcePath": "/Users/tonyma/codingPlayground/DWDN/contracts/DWDN.sol",
  "compiler": {
    "name": "solc",
    "version": "0.8.13+commit.abaa5c0e.Emscripten.clang"
  },
  "schemaVersion": "3.4.7",
  "updatedAt": "2022-04-19T15:37:51.081Z",
  "networkType": "ethereum",
  "devdoc": {
    "kind": "dev",
    "methods": {},
    "version": 1
  },
  "userdoc": {
    "kind": "user",
    "methods": {},
    "version": 1
  }
}