{
  "contractName": "DWDN",
  "abi": [
    {
      "inputs": [],
      "stateMutability": "nonpayable",
      "type": "constructor"
    },
    {
      "anonymous": false,
      "inputs": [
        {
          "indexed": false,
          "internalType": "uint256",
          "name": "i",
          "type": "uint256"
        }
      ],
      "name": "Print",
      "type": "event"
    },
    {
      "anonymous": false,
      "inputs": [
        {
          "indexed": false,
          "internalType": "string",
          "name": "s",
          "type": "string"
        }
      ],
      "name": "Print",
      "type": "event"
    },
    {
      "anonymous": false,
      "inputs": [
        {
          "indexed": false,
          "internalType": "string",
          "name": "s",
          "type": "string"
        },
        {
          "indexed": false,
          "internalType": "uint256",
          "name": "i",
          "type": "uint256"
        }
      ],
      "name": "Print",
      "type": "event"
    },
    {
      "inputs": [],
      "name": "_gasTransfer",
      "outputs": [
        {
          "internalType": "uint256",
          "name": "",
          "type": "uint256"
        }
      ],
      "stateMutability": "view",
      "type": "function",
      "constant": true
    },
    {
      "inputs": [],
      "name": "_lock",
      "outputs": [
        {
          "internalType": "bool",
          "name": "",
          "type": "bool"
        }
      ],
      "stateMutability": "view",
      "type": "function",
      "constant": true
    },
    {
      "inputs": [],
      "name": "_maxConnections",
      "outputs": [
        {
          "internalType": "uint256",
          "name": "",
          "type": "uint256"
        }
      ],
      "stateMutability": "view",
      "type": "function",
      "constant": true
    },
    {
      "inputs": [],
      "name": "_maxMemoryArray",
      "outputs": [
        {
          "internalType": "uint256",
          "name": "",
          "type": "uint256"
        }
      ],
      "stateMutability": "view",
      "type": "function",
      "constant": true
    },
    {
      "inputs": [],
      "name": "_maxWeiDistribution",
      "outputs": [
        {
          "internalType": "uint256",
          "name": "",
          "type": "uint256"
        }
      ],
      "stateMutability": "view",
      "type": "function",
      "constant": true
    },
    {
      "inputs": [],
      "name": "_minWeiDistribution",
      "outputs": [
        {
          "internalType": "uint256",
          "name": "",
          "type": "uint256"
        }
      ],
      "stateMutability": "view",
      "type": "function",
      "constant": true
    },
    {
      "inputs": [
        {
          "internalType": "address",
          "name": "",
          "type": "address"
        }
      ],
      "name": "_network",
      "outputs": [
        {
          "internalType": "uint256",
          "name": "_sizeOfConnectedUsersByAddress",
          "type": "uint256"
        }
      ],
      "stateMutability": "view",
      "type": "function",
      "constant": true
    },
    {
      "inputs": [],
      "name": "getParameters",
      "outputs": [
        {
          "internalType": "uint256",
          "name": "",
          "type": "uint256"
        },
        {
          "internalType": "uint256",
          "name": "",
          "type": "uint256"
        },
        {
          "internalType": "uint256",
          "name": "",
          "type": "uint256"
        },
        {
          "internalType": "uint256",
          "name": "",
          "type": "uint256"
        },
        {
          "internalType": "uint256",
          "name": "",
          "type": "uint256"
        }
      ],
      "stateMutability": "view",
      "type": "function",
      "constant": true
    },
    {
      "inputs": [
        {
          "internalType": "address",
          "name": "_address",
          "type": "address"
        }
      ],
      "name": "getVariables",
      "outputs": [
        {
          "internalType": "uint256",
          "name": "",
          "type": "uint256"
        },
        {
          "internalType": "uint256",
          "name": "",
          "type": "uint256"
        }
      ],
      "stateMutability": "view",
      "type": "function",
      "constant": true
    },
    {
      "inputs": [],
      "name": "getAddresses",
      "outputs": [
        {
          "internalType": "address[]",
          "name": "",
          "type": "address[]"
        }
      ],
      "stateMutability": "view",
      "type": "function",
      "constant": true
    },
    {
      "inputs": [],
      "name": "getBlackListAddresses",
      "outputs": [
        {
          "internalType": "address[]",
          "name": "",
          "type": "address[]"
        }
      ],
      "stateMutability": "view",
      "type": "function",
      "constant": true
    },
    {
      "inputs": [
        {
          "internalType": "uint256",
          "name": "gas",
          "type": "uint256"
        }
      ],
      "name": "changeGasValue",
      "outputs": [],
      "stateMutability": "nonpayable",
      "type": "function"
    },
    {
      "inputs": [
        {
          "internalType": "uint256",
          "name": "maxMemory",
          "type": "uint256"
        }
      ],
      "name": "changeMaxMemory",
      "outputs": [],
      "stateMutability": "nonpayable",
      "type": "function"
    },
    {
      "inputs": [
        {
          "internalType": "uint256",
          "name": "a",
          "type": "uint256"
        },
        {
          "internalType": "uint256",
          "name": "b",
          "type": "uint256"
        }
      ],
      "name": "max",
      "outputs": [
        {
          "internalType": "uint256",
          "name": "",
          "type": "uint256"
        }
      ],
      "stateMutability": "pure",
      "type": "function",
      "constant": true
    },
    {
      "inputs": [
        {
          "internalType": "uint256",
          "name": "a",
          "type": "uint256"
        },
        {
          "internalType": "uint256",
          "name": "b",
          "type": "uint256"
        }
      ],
      "name": "min",
      "outputs": [
        {
          "internalType": "uint256",
          "name": "",
          "type": "uint256"
        }
      ],
      "stateMutability": "pure",
      "type": "function",
      "constant": true
    },
    {
      "inputs": [
        {
          "internalType": "address[]",
          "name": "arr",
          "type": "address[]"
        },
        {
          "internalType": "address",
          "name": "element",
          "type": "address"
        }
      ],
      "name": "arrayHasElement",
      "outputs": [
        {
          "internalType": "bool",
          "name": "",
          "type": "bool"
        }
      ],
      "stateMutability": "pure",
      "type": "function",
      "constant": true
    },
    {
      "inputs": [],
      "name": "makeADonation",
      "outputs": [],
      "stateMutability": "payable",
      "type": "function",
      "payable": true
    },
    {
      "inputs": [
        {
          "internalType": "address",
          "name": "_address",
          "type": "address"
        }
      ],
      "name": "addUserToBlacklist",
      "outputs": [],
      "stateMutability": "nonpayable",
      "type": "function"
    },
    {
      "inputs": [
        {
          "internalType": "address",
          "name": "_address",
          "type": "address"
        }
      ],
      "name": "requestUserToJoinTheNetwork",
      "outputs": [],
      "stateMutability": "nonpayable",
      "type": "function"
    },
    {
      "inputs": [],
      "name": "destroy",
      "outputs": [],
      "stateMutability": "nonpayable",
      "type": "function"
    }
  ],
  "bytecode": "0x60806040523480156200001157600080fd5b50336000806101000a81548173ffffffffffffffffffffffffffffffffffffffff021916908373ffffffffffffffffffffffffffffffffffffffff160217905550600460038190555066071afd498d0000600181905550600060028190555060646004819055506000600660006101000a81548160ff021916908315150217905550610bb86005819055506001600760008060009054906101000a900473ffffffffffffffffffffffffffffffffffffffff1673ffffffffffffffffffffffffffffffffffffffff1673ffffffffffffffffffffffffffffffffffffffff16815260200190815260200160002060000160008060009054906101000a900473ffffffffffffffffffffffffffffffffffffffff1673ffffffffffffffffffffffffffffffffffffffff1673ffffffffffffffffffffffffffffffffffffffff16815260200190815260200160002081905550600760008060009054906101000a900473ffffffffffffffffffffffffffffffffffffffff1673ffffffffffffffffffffffffffffffffffffffff1673ffffffffffffffffffffffffffffffffffffffff1681526020019081526020016000206003016000815480929190620001d9906200021d565b91905055506200026a565b7f4e487b7100000000000000000000000000000000000000000000000000000000600052601160045260246000fd5b6000819050919050565b60006200022a8262000213565b91507fffffffffffffffffffffffffffffffffffffffffffffffffffffffffffffffff82036200025f576200025e620001e4565b5b600182019050919050565b61208c806200027a6000396000f3fe60806040526004361061011f5760003560e01c80636d5433e6116100a0578063a39fac1211610064578063a39fac12146103cb578063a5ea11da146103f6578063ba02ff5c14610425578063be7eab141461044e578063dec60aef146104795761011f565b80636d5433e6146102d25780637ae2b5c71461030f5780638292f7be1461034c57806383197ef0146103895780639c2e15d6146103a05761011f565b80634bd724ed116100e75780634bd724ed1461020957806350b00eb3146102345780635f3daf971461027257806367dc880e1461029d5780636928ae03146102c85761011f565b806301c2edac14610124578063272d988a1461014d57806343d8dd4f146101785780634467ea5b146101a35780634863e96d146101e0575b600080fd5b34801561013057600080fd5b5061014b600480360381019061014691906117c4565b6104a2565b005b34801561015957600080fd5b50610162610995565b60405161016f919061180a565b60405180910390f35b34801561018457600080fd5b5061018d61099b565b60405161019a919061180a565b60405180910390f35b3480156101af57600080fd5b506101ca60048036038101906101c591906117c4565b6109a1565b6040516101d7919061180a565b60405180910390f35b3480156101ec57600080fd5b50610207600480360381019061020291906117c4565b6109bf565b005b34801561021557600080fd5b5061021e610a47565b60405161022b9190611840565b60405180910390f35b34801561024057600080fd5b5061025b600480360381019061025691906117c4565b610a5a565b60405161026992919061185b565b60405180910390f35b34801561027e57600080fd5b50610287610b29565b6040516102949190611942565b60405180910390f35b3480156102a957600080fd5b506102b2610dc5565b6040516102bf919061180a565b60405180910390f35b6102d0610dcb565b005b3480156102de57600080fd5b506102f960048036038101906102f49190611990565b611348565b604051610306919061180a565b60405180910390f35b34801561031b57600080fd5b5061033660048036038101906103319190611990565b611362565b604051610343919061180a565b60405180910390f35b34801561035857600080fd5b50610373600480360381019061036e9190611b29565b61137c565b6040516103809190611840565b60405180910390f35b34801561039557600080fd5b5061039e611459565b005b3480156103ac57600080fd5b506103b5611520565b6040516103c2919061180a565b60405180910390f35b3480156103d757600080fd5b506103e0611526565b6040516103ed9190611942565b60405180910390f35b34801561040257600080fd5b5061040b6115f4565b60405161041c959493929190611b85565b60405180910390f35b34801561043157600080fd5b5061044c60048036038101906104479190611bd8565b61161c565b005b34801561045a57600080fd5b506104636116b4565b604051610470919061180a565b60405180910390f35b34801561048557600080fd5b506104a0600480360381019061049b9190611bd8565b6116ba565b005b6001600760003373ffffffffffffffffffffffffffffffffffffffff1673ffffffffffffffffffffffffffffffffffffffff16815260200190815260200160002060000160003373ffffffffffffffffffffffffffffffffffffffff1673ffffffffffffffffffffffffffffffffffffffff1681526020019081526020016000205414610564576040517f08c379a000000000000000000000000000000000000000000000000000000000815260040161055b90611c88565b60405180910390fd5b6000600760003373ffffffffffffffffffffffffffffffffffffffff1673ffffffffffffffffffffffffffffffffffffffff16815260200190815260200160002060000160008373ffffffffffffffffffffffffffffffffffffffff1673ffffffffffffffffffffffffffffffffffffffff1681526020019081526020016000205414610626576040517f08c379a000000000000000000000000000000000000000000000000000000000815260040161061d90611d1a565b60405180910390fd5b600354600760003373ffffffffffffffffffffffffffffffffffffffff1673ffffffffffffffffffffffffffffffffffffffff1681526020019081526020016000206003015411156106ad576040517f08c379a00000000000000000000000000000000000000000000000000000000081526004016106a490611dac565b60405180910390fd5b6000600760008373ffffffffffffffffffffffffffffffffffffffff1673ffffffffffffffffffffffffffffffffffffffff16815260200190815260200160002060000160008373ffffffffffffffffffffffffffffffffffffffff1673ffffffffffffffffffffffffffffffffffffffff1681526020019081526020016000205403610812576001600760008373ffffffffffffffffffffffffffffffffffffffff1673ffffffffffffffffffffffffffffffffffffffff16815260200190815260200160002060000160008373ffffffffffffffffffffffffffffffffffffffff1673ffffffffffffffffffffffffffffffffffffffff16815260200190815260200160002081905550600760008273ffffffffffffffffffffffffffffffffffffffff1673ffffffffffffffffffffffffffffffffffffffff168152602001908152602001600020600301600081548092919061080c90611dfb565b91905055505b6001600760003373ffffffffffffffffffffffffffffffffffffffff1673ffffffffffffffffffffffffffffffffffffffff16815260200190815260200160002060000160008373ffffffffffffffffffffffffffffffffffffffff1673ffffffffffffffffffffffffffffffffffffffff16815260200190815260200160002081905550600760003373ffffffffffffffffffffffffffffffffffffffff1673ffffffffffffffffffffffffffffffffffffffff168152602001908152602001600020600201819080600181540180825580915050600190039060005260206000200160009091909190916101000a81548173ffffffffffffffffffffffffffffffffffffffff021916908373ffffffffffffffffffffffffffffffffffffffff160217905550600760003373ffffffffffffffffffffffffffffffffffffffff1673ffffffffffffffffffffffffffffffffffffffff168152602001908152602001600020600301600081548092919061098d90611dfb565b919050555050565b60015481565b60055481565b60076020528060005260406000206000915090508060030154905081565b6001600760003373ffffffffffffffffffffffffffffffffffffffff1673ffffffffffffffffffffffffffffffffffffffff16815260200190815260200160002060010160008373ffffffffffffffffffffffffffffffffffffffff1673ffffffffffffffffffffffffffffffffffffffff1681526020019081526020016000208190555050565b600660009054906101000a900460ff1681565b600080600760003373ffffffffffffffffffffffffffffffffffffffff1673ffffffffffffffffffffffffffffffffffffffff16815260200190815260200160002060000160008473ffffffffffffffffffffffffffffffffffffffff1673ffffffffffffffffffffffffffffffffffffffff16815260200190815260200160002054600760003373ffffffffffffffffffffffffffffffffffffffff1673ffffffffffffffffffffffffffffffffffffffff1681526020019081526020016000206003015491509150915091565b6060600060035467ffffffffffffffff811115610b4957610b486119e6565b5b604051908082528060200260200182016040528015610b775781602001602082028036833780820191505090505b5090506000805b600760003373ffffffffffffffffffffffffffffffffffffffff1673ffffffffffffffffffffffffffffffffffffffff16815260200190815260200160002060020180549050811015610dbc576001600760003373ffffffffffffffffffffffffffffffffffffffff1673ffffffffffffffffffffffffffffffffffffffff1681526020019081526020016000206001016000600760003373ffffffffffffffffffffffffffffffffffffffff1673ffffffffffffffffffffffffffffffffffffffff1681526020019081526020016000206002018481548110610c6557610c64611e43565b5b9060005260206000200160009054906101000a900473ffffffffffffffffffffffffffffffffffffffff1673ffffffffffffffffffffffffffffffffffffffff1673ffffffffffffffffffffffffffffffffffffffff1681526020019081526020016000205403610dab57600760003373ffffffffffffffffffffffffffffffffffffffff1673ffffffffffffffffffffffffffffffffffffffff1681526020019081526020016000206002018181548110610d2457610d23611e43565b5b9060005260206000200160009054906101000a900473ffffffffffffffffffffffffffffffffffffffff16838381518110610d6257610d61611e43565b5b602002602001019073ffffffffffffffffffffffffffffffffffffffff16908173ffffffffffffffffffffffffffffffffffffffff16815250508180610da790611dfb565b9250505b80610db590611dfb565b9050610b7e565b50819250505090565b60035481565b600660009054906101000a900460ff1615610e1b576040517f08c379a0000000000000000000000000000000000000000000000000000000008152600401610e1290611ebe565b60405180910390fd5b6001600660006101000a81548160ff02191690831515021790555060003490506000806000905060008060045467ffffffffffffffff811115610e6157610e606119e6565b5b604051908082528060200260200182016040528015610e8f5781602001602082028036833780820191505090505b5090503381600081518110610ea757610ea6611e43565b5b602002602001019073ffffffffffffffffffffffffffffffffffffffff16908173ffffffffffffffffffffffffffffffffffffffff16815250505b600073ffffffffffffffffffffffffffffffffffffffff16818481518110610f0d57610f0c611e43565b5b602002602001015173ffffffffffffffffffffffffffffffffffffffff1614158015610f3a575060045482105b1561126a576000818481518110610f5457610f53611e43565b5b6020026020010151905060005b60076000848781518110610f7857610f77611e43565b5b602002602001015173ffffffffffffffffffffffffffffffffffffffff1673ffffffffffffffffffffffffffffffffffffffff16815260200190815260200160002060020180549050811015611255576000600760008473ffffffffffffffffffffffffffffffffffffffff1673ffffffffffffffffffffffffffffffffffffffff168152602001908152602001600020600201828154811061101e5761101d611e43565b5b9060005260206000200160009054906101000a900473ffffffffffffffffffffffffffffffffffffffff1690506001600760008573ffffffffffffffffffffffffffffffffffffffff1673ffffffffffffffffffffffffffffffffffffffff16815260200190815260200160002060010160008373ffffffffffffffffffffffffffffffffffffffff1673ffffffffffffffffffffffffffffffffffffffff16815260200190815260200160002054036110d85750611244565b6110e2848261137c565b156110ed5750611244565b6002548810156110fd5750611255565b61111461110c89600154611362565b600254611348565b965086886111229190611ede565b975060008173ffffffffffffffffffffffffffffffffffffffff16886005549060405161114e90611f43565b600060405180830381858888f193505050503d806000811461118c576040519150601f19603f3d011682016040523d82523d6000602084013e611191565b606091505b50509050806111d5576040517f08c379a00000000000000000000000000000000000000000000000000000000081526004016111cc90611fa4565b60405180910390fd5b85806111e090611dfb565b96505060045486106111f3575050611255565b8185878151811061120757611206611e43565b5b602002602001019073ffffffffffffffffffffffffffffffffffffffff16908173ffffffffffffffffffffffffffffffffffffffff168152505050505b8061124e90611dfb565b9050610f61565b50838061126190611dfb565b94505050610ee2565b60025485106113265760003373ffffffffffffffffffffffffffffffffffffffff16866005549060405161129d90611f43565b600060405180830381858888f193505050503d80600081146112db576040519150601f19603f3d011682016040523d82523d6000602084013e6112e0565b606091505b5050905080611324576040517f08c379a000000000000000000000000000000000000000000000000000000000815260040161131b90611fa4565b60405180910390fd5b505b6000600660006101000a81548160ff0219169083151502179055505050505050565b600081831015611358578161135a565b825b905092915050565b6000818311156113725781611374565b825b905092915050565b600080600090505b835181101561144d578273ffffffffffffffffffffffffffffffffffffffff168482815181106113b7576113b6611e43565b5b602002602001015173ffffffffffffffffffffffffffffffffffffffff16036113e4576001915050611453565b600073ffffffffffffffffffffffffffffffffffffffff1684828151811061140f5761140e611e43565b5b602002602001015173ffffffffffffffffffffffffffffffffffffffff160361143c576000915050611453565b8061144690611dfb565b9050611384565b50600090505b92915050565b60008054906101000a900473ffffffffffffffffffffffffffffffffffffffff1673ffffffffffffffffffffffffffffffffffffffff163373ffffffffffffffffffffffffffffffffffffffff16146114e7576040517f08c379a00000000000000000000000000000000000000000000000000000000081526004016114de90612036565b60405180910390fd5b60008054906101000a900473ffffffffffffffffffffffffffffffffffffffff1673ffffffffffffffffffffffffffffffffffffffff16ff5b60025481565b6060600760003373ffffffffffffffffffffffffffffffffffffffff1673ffffffffffffffffffffffffffffffffffffffff1681526020019081526020016000206002018054806020026020016040519081016040528092919081815260200182805480156115ea57602002820191906000526020600020905b8160009054906101000a900473ffffffffffffffffffffffffffffffffffffffff1673ffffffffffffffffffffffffffffffffffffffff16815260200190600101908083116115a0575b5050505050905090565b6000806000806000600354600154600254600454600554945094509450945094509091929394565b60008054906101000a900473ffffffffffffffffffffffffffffffffffffffff1673ffffffffffffffffffffffffffffffffffffffff163373ffffffffffffffffffffffffffffffffffffffff16146116aa576040517f08c379a00000000000000000000000000000000000000000000000000000000081526004016116a190612036565b60405180910390fd5b8060048190555050565b60045481565b60008054906101000a900473ffffffffffffffffffffffffffffffffffffffff1673ffffffffffffffffffffffffffffffffffffffff163373ffffffffffffffffffffffffffffffffffffffff1614611748576040517f08c379a000000000000000000000000000000000000000000000000000000000815260040161173f90612036565b60405180910390fd5b8060058190555050565b6000604051905090565b600080fd5b600080fd5b600073ffffffffffffffffffffffffffffffffffffffff82169050919050565b600061179182611766565b9050919050565b6117a181611786565b81146117ac57600080fd5b50565b6000813590506117be81611798565b92915050565b6000602082840312156117da576117d961175c565b5b60006117e8848285016117af565b91505092915050565b6000819050919050565b611804816117f1565b82525050565b600060208201905061181f60008301846117fb565b92915050565b60008115159050919050565b61183a81611825565b82525050565b60006020820190506118556000830184611831565b92915050565b600060408201905061187060008301856117fb565b61187d60208301846117fb565b9392505050565b600081519050919050565b600082825260208201905092915050565b6000819050602082019050919050565b6118b981611786565b82525050565b60006118cb83836118b0565b60208301905092915050565b6000602082019050919050565b60006118ef82611884565b6118f9818561188f565b9350611904836118a0565b8060005b8381101561193557815161191c88826118bf565b9750611927836118d7565b925050600181019050611908565b5085935050505092915050565b6000602082019050818103600083015261195c81846118e4565b905092915050565b61196d816117f1565b811461197857600080fd5b50565b60008135905061198a81611964565b92915050565b600080604083850312156119a7576119a661175c565b5b60006119b58582860161197b565b92505060206119c68582860161197b565b9150509250929050565b600080fd5b6000601f19601f8301169050919050565b7f4e487b7100000000000000000000000000000000000000000000000000000000600052604160045260246000fd5b611a1e826119d5565b810181811067ffffffffffffffff82111715611a3d57611a3c6119e6565b5b80604052505050565b6000611a50611752565b9050611a5c8282611a15565b919050565b600067ffffffffffffffff821115611a7c57611a7b6119e6565b5b602082029050602081019050919050565b600080fd5b6000611aa5611aa084611a61565b611a46565b90508083825260208201905060208402830185811115611ac857611ac7611a8d565b5b835b81811015611af15780611add88826117af565b845260208401935050602081019050611aca565b5050509392505050565b600082601f830112611b1057611b0f6119d0565b5b8135611b20848260208601611a92565b91505092915050565b60008060408385031215611b4057611b3f61175c565b5b600083013567ffffffffffffffff811115611b5e57611b5d611761565b5b611b6a85828601611afb565b9250506020611b7b858286016117af565b9150509250929050565b600060a082019050611b9a60008301886117fb565b611ba760208301876117fb565b611bb460408301866117fb565b611bc160608301856117fb565b611bce60808301846117fb565b9695505050505050565b600060208284031215611bee57611bed61175c565b5b6000611bfc8482850161197b565b91505092915050565b600082825260208201905092915050565b7f5468652075736572206973206e6f742070617274206f6620746865206e65747760008201527f6f726b0000000000000000000000000000000000000000000000000000000000602082015250565b6000611c72602383611c05565b9150611c7d82611c16565b604082019050919050565b60006020820190508181036000830152611ca181611c65565b9050919050565b7f546865207573657220697320616c726561647920636f6e6e656374656420746f60008201527f207468697320706172656e740000000000000000000000000000000000000000602082015250565b6000611d04602c83611c05565b9150611d0f82611ca8565b604082019050919050565b60006020820190508181036000830152611d3381611cf7565b9050919050565b7f5468652075736572207265616368656420746865206d6178696d756d206e756d60008201527f626572206f6620636f6e6e656374696f6e730000000000000000000000000000602082015250565b6000611d96603283611c05565b9150611da182611d3a565b604082019050919050565b60006020820190508181036000830152611dc581611d89565b9050919050565b7f4e487b7100000000000000000000000000000000000000000000000000000000600052601160045260246000fd5b6000611e06826117f1565b91507fffffffffffffffffffffffffffffffffffffffffffffffffffffffffffffffff8203611e3857611e37611dcc565b5b600182019050919050565b7f4e487b7100000000000000000000000000000000000000000000000000000000600052603260045260246000fd5b7f5265656e7472616e637920646574656374656421000000000000000000000000600082015250565b6000611ea8601483611c05565b9150611eb382611e72565b602082019050919050565b60006020820190508181036000830152611ed781611e9b565b9050919050565b6000611ee9826117f1565b9150611ef4836117f1565b925082821015611f0757611f06611dcc565b5b828203905092915050565b600081905092915050565b50565b6000611f2d600083611f12565b9150611f3882611f1d565b600082019050919050565b6000611f4e82611f20565b9150819050919050565b7f5472616e73666572206661696c65640000000000000000000000000000000000600082015250565b6000611f8e600f83611c05565b9150611f9982611f58565b602082019050919050565b60006020820190508181036000830152611fbd81611f81565b9050919050565b7f4f6e6c7920746865206f776e65722063616e2063616c6c20746869732066756e60008201527f6374696f6e000000000000000000000000000000000000000000000000000000602082015250565b6000612020602583611c05565b915061202b82611fc4565b604082019050919050565b6000602082019050818103600083015261204f81612013565b905091905056fea2646970667358221220dc8085060bd11a9bf3fd01036d01e68114edf70185c549fd5e791633a6f01b3a64736f6c634300080d0033",
  "immutableReferences": {},
  "source": "// SPDX-License-Identifier: MIT\npragma solidity >=0.4.22 <0.9.0;\n\n// Decentralized Wealth Distribution Network\ncontract DWDN {\n    address _owner;\n\n    uint256 public _maxWeiDistribution;\n    uint256 public _minWeiDistribution;\n    uint256 public _maxConnections;\n    uint256 public _maxMemoryArray;\n    uint256 public _gasTransfer;\n\n    bool public _lock;\n\n    struct Network {\n        mapping(address => uint256) _connectedUsersByAddress;\n        mapping(address => uint256) _blackList;\n        address[] _addresses;\n        uint256 _sizeOfConnectedUsersByAddress;\n    }\n\n    mapping(address => Network) public _network;\n\n    event Print(uint256 i);\n    event Print(string s);\n    event Print(string s, uint256 i);\n\n    constructor() {\n        _owner = msg.sender;\n        _maxConnections = 4;\n        _maxWeiDistribution = (10**15) * 2;\n        _minWeiDistribution = 0;\n        _maxMemoryArray = 100;\n        _lock = false;\n        _gasTransfer = 3000;\n\n        //emit Print(_maxWeiDistribution);\n\n        _network[_owner]._connectedUsersByAddress[_owner] = 1;\n        _network[_owner]._sizeOfConnectedUsersByAddress++;\n    }\n\n    modifier onlyOwner() {\n        require(msg.sender == _owner, \"Only the owner can call this function\");\n        _;\n    }\n\n    function getParameters()\n        public\n        view\n        returns (\n            uint256,\n            uint256,\n            uint256,\n            uint256,\n            uint256\n        )\n    {\n        return (\n            _maxConnections,\n            _maxWeiDistribution,\n            _minWeiDistribution,\n            _maxMemoryArray,\n            _gasTransfer\n        );\n    }\n\n    function getVariables(address _address)\n        public\n        view\n        returns (uint256, uint256)\n    {\n        return (\n            _network[msg.sender]._connectedUsersByAddress[_address],\n            _network[msg.sender]._sizeOfConnectedUsersByAddress\n        );\n    }\n\n    function getAddresses() public view returns (address[] memory) {\n        return (_network[msg.sender]._addresses);\n    }\n\n    function getBlackListAddresses() public view returns (address[] memory) {\n        address[] memory _addressesOnBlackList = new address[](_maxConnections);\n        uint256 j = 0;\n\n        for (uint256 i = 0; i < _network[msg.sender]._addresses.length; ++i) {\n            if (\n                _network[msg.sender]._blackList[\n                    _network[msg.sender]._addresses[i]\n                ] == 1\n            ) {\n                _addressesOnBlackList[j] = _network[msg.sender]._addresses[i];\n                j++;\n            }\n        }\n\n        return _addressesOnBlackList;\n    }\n\n    function changeGasValue(uint256 gas) public onlyOwner {\n        _gasTransfer = gas;\n    }\n\n    function changeMaxMemory(uint256 maxMemory) public onlyOwner {\n        _maxMemoryArray = maxMemory;\n    }\n\n    function max(uint256 a, uint256 b) public pure returns (uint256) {\n        return a >= b ? a : b;\n    }\n\n    function min(uint256 a, uint256 b) public pure returns (uint256) {\n        return a <= b ? a : b;\n    }\n\n    function arrayHasElement(address[] memory arr, address element)\n        public\n        pure\n        returns (bool)\n    {\n        for (uint256 i = 0; i < arr.length; ++i) {\n            if (arr[i] == element) {\n                return true;\n            }\n            if (arr[i] == address(0)) {\n                return false;\n            }\n        }\n        return false;\n    }\n\n    function makeADonation() public payable {\n        require(!_lock, \"Reentrancy detected!\");\n        // require(_network[msg.sender]._sizeOfConnectedUsersByAddress > _maxConnections, \"The user has to add more connections to make a donation\");\n\n        _lock = true;\n\n        uint256 _remainingAmount = msg.value;\n        uint256 _donationAmount;\n        uint256 _currentChildLocation = 0;\n        uint256 _maxChildLocation = 0;\n\n        address[] memory _childs = new address[](_maxMemoryArray);\n\n        _childs[0] = msg.sender;\n\n        while (\n            _childs[_currentChildLocation] != address(0) &&\n            _maxChildLocation < _maxMemoryArray\n        ) {\n            address _parent = _childs[_currentChildLocation];\n\n            for (\n                uint256 i = 0;\n                i < _network[_childs[_currentChildLocation]]._addresses.length;\n                ++i\n            ) {\n                address _child = _network[_parent]._addresses[i];\n\n                if (_network[_parent]._blackList[_child] == 1) {\n                    continue;\n                }\n                if (arrayHasElement(_childs, _child)) {\n                    continue;\n                }\n                if (_remainingAmount < _minWeiDistribution) {\n                    break;\n                }\n\n                _donationAmount = max(\n                    min(_remainingAmount, _maxWeiDistribution),\n                    _minWeiDistribution\n                );\n                _remainingAmount = _remainingAmount - _donationAmount;\n\n                (bool success, ) = _child.call{\n                    value: _donationAmount,\n                    gas: _gasTransfer\n                }(\"\");\n                require(success, \"Transfer failed\");\n\n                _maxChildLocation++;\n\n                if (_maxChildLocation >= _maxMemoryArray) {\n                    break;\n                }\n\n                _childs[_maxChildLocation] = _child;\n            }\n\n            _currentChildLocation++;\n        }\n\n        if (_remainingAmount >= _minWeiDistribution) {\n            (bool success, ) = msg.sender.call{\n                value: _remainingAmount,\n                gas: _gasTransfer\n            }(\"\");\n            require(success, \"Transfer failed\");\n        }\n\n        _lock = false;\n    }\n\n    function addUserToBlacklist(address _address) public {\n        _network[msg.sender]._blackList[_address] = 1;\n    }\n\n    function requestUserToJoinTheNetwork(address _address) public {\n        require(\n            _network[msg.sender]._connectedUsersByAddress[msg.sender] == 1,\n            \"The user is not part of the network\"\n        );\n        require(\n            _network[msg.sender]._connectedUsersByAddress[_address] == 0,\n            \"The user is already connected to this parent\"\n        );\n        require(\n            _network[msg.sender]._sizeOfConnectedUsersByAddress <=\n                _maxConnections,\n            \"The user reached the maximum number of connections\"\n        );\n\n        if (_network[_address]._connectedUsersByAddress[_address] == 0) {\n            _network[_address]._connectedUsersByAddress[_address] = 1;\n            _network[_address]._sizeOfConnectedUsersByAddress++;\n        }\n\n        _network[msg.sender]._connectedUsersByAddress[_address] = 1;\n        _network[msg.sender]._addresses.push(_address);\n        _network[msg.sender]._sizeOfConnectedUsersByAddress++;\n    }\n\n    function destroy() public onlyOwner {\n        selfdestruct(payable(_owner));\n    }\n}\n",
  "sourcePath": "/Users/tonyma/codingPlayground/uniswap-clone-youtube/smart_contract/contracts/DWDN.sol",
  "compiler": {
    "name": "solc",
    "version": "0.8.13+commit.abaa5c0e.Emscripten.clang"
  },
  "schemaVersion": "3.4.7",
  "updatedAt": "2022-04-24T19:50:21.780Z",
  "networkType": "ethereum",
  "devdoc": {
    "kind": "dev",
    "methods": {},
    "version": 1
  },
  "userdoc": {
    "kind": "user",
    "methods": {},
    "version": 1
  }
}